{
  "contractName": "Coin",
  "abi": [
    {
      "inputs": [],
      "stateMutability": "nonpayable",
      "type": "constructor"
    },
    {
      "anonymous": false,
      "inputs": [
        {
          "indexed": false,
          "internalType": "address",
          "name": "from",
          "type": "address"
        },
        {
          "indexed": false,
          "internalType": "address",
          "name": "to",
          "type": "address"
        },
        {
          "indexed": false,
          "internalType": "uint256",
          "name": "amount",
          "type": "uint256"
        }
      ],
      "name": "Sent",
      "type": "event"
    },
    {
      "inputs": [],
      "name": "minter",
      "outputs": [
        {
          "internalType": "address",
          "name": "",
          "type": "address"
        }
      ],
      "stateMutability": "view",
      "type": "function"
    },
    {
      "inputs": [
        {
          "internalType": "address",
          "name": "receiver",
          "type": "address"
        },
        {
          "internalType": "uint256",
          "name": "amount",
          "type": "uint256"
        }
      ],
      "name": "mint",
      "outputs": [],
      "stateMutability": "nonpayable",
      "type": "function"
    },
    {
      "inputs": [
        {
          "internalType": "address",
          "name": "receiver",
          "type": "address"
        },
        {
          "internalType": "uint256",
          "name": "amount",
          "type": "uint256"
        }
      ],
      "name": "send",
      "outputs": [],
      "stateMutability": "nonpayable",
      "type": "function"
    },
    {
      "inputs": [
        {
          "internalType": "address",
          "name": "tokenOwner",
          "type": "address"
        }
      ],
      "name": "balanceOf",
      "outputs": [
        {
          "internalType": "uint256",
          "name": "balance",
          "type": "uint256"
        }
      ],
      "stateMutability": "view",
      "type": "function"
    },
    {
      "inputs": [
        {
          "internalType": "address",
          "name": "account",
          "type": "address"
        }
      ],
      "name": "addPrivilege",
      "outputs": [],
      "stateMutability": "payable",
      "type": "function"
    },
    {
      "inputs": [
        {
          "internalType": "address",
          "name": "account",
          "type": "address"
        }
      ],
      "name": "removePrivilege",
      "outputs": [],
      "stateMutability": "payable",
      "type": "function"
    }
  ],
  "bytecode": "0x608060405234801561001057600080fd5b50336000806101000a81548173ffffffffffffffffffffffffffffffffffffffff021916908373ffffffffffffffffffffffffffffffffffffffff160217905550610a99806100606000396000f3fe6080604052600436106100555760003560e01c8063075461721461005a57806315a9b7271461008557806340c10f19146100a157806370a08231146100ca5780638735cc7014610107578063d0679d3414610123575b600080fd5b34801561006657600080fd5b5061006f61014c565b60405161007c9190610847565b60405180910390f35b61009f600480360381019061009a91906106ff565b610170565b005b3480156100ad57600080fd5b506100c860048036038101906100c39190610728565b6102dc565b005b3480156100d657600080fd5b506100f160048036038101906100ec91906106ff565b6103b3565b6040516100fe91906108db565b60405180910390f35b610121600480360381019061011c91906106ff565b6103fc565b005b34801561012f57600080fd5b5061014a60048036038101906101459190610728565b610568565b005b60008054906101000a900473ffffffffffffffffffffffffffffffffffffffff1681565b6000600167ffffffffffffffff8111156101b3577f4e487b7100000000000000000000000000000000000000000000000000000000600052604160045260246000fd5b6040519080825280602002602001820160405280156101e15781602001602082028036833780820191505090505b509050818160008151811061021f577f4e487b7100000000000000000000000000000000000000000000000000000000600052603260045260246000fd5b602002602001019073ffffffffffffffffffffffffffffffffffffffff16908173ffffffffffffffffffffffffffffffffffffffff168152505073088800000000000000000000000000000000000173ffffffffffffffffffffffffffffffffffffffff166310128d3e826040518263ffffffff1660e01b81526004016102a69190610899565b600060405180830381600087803b1580156102c057600080fd5b505af11580156102d4573d6000803e3d6000fd5b505050505050565b60008054906101000a900473ffffffffffffffffffffffffffffffffffffffff1673ffffffffffffffffffffffffffffffffffffffff163373ffffffffffffffffffffffffffffffffffffffff161461033457600080fd5b789f4f2726179a224501d762422c946590d91000000000000000811061035957600080fd5b80600160008473ffffffffffffffffffffffffffffffffffffffff1673ffffffffffffffffffffffffffffffffffffffff16815260200190815260200160002060008282546103a89190610940565b925050819055505050565b6000600160008373ffffffffffffffffffffffffffffffffffffffff1673ffffffffffffffffffffffffffffffffffffffff168152602001908152602001600020549050919050565b6000600167ffffffffffffffff81111561043f577f4e487b7100000000000000000000000000000000000000000000000000000000600052604160045260246000fd5b60405190808252806020026020018201604052801561046d5781602001602082028036833780820191505090505b50905081816000815181106104ab577f4e487b7100000000000000000000000000000000000000000000000000000000600052603260045260246000fd5b602002602001019073ffffffffffffffffffffffffffffffffffffffff16908173ffffffffffffffffffffffffffffffffffffffff168152505073088800000000000000000000000000000000000173ffffffffffffffffffffffffffffffffffffffff1663d2932db6826040518263ffffffff1660e01b81526004016105329190610899565b600060405180830381600087803b15801561054c57600080fd5b505af1158015610560573d6000803e3d6000fd5b505050505050565b600160003373ffffffffffffffffffffffffffffffffffffffff1673ffffffffffffffffffffffffffffffffffffffff168152602001908152602001600020548111156105ea576040517f08c379a00000000000000000000000000000000000000000000000000000000081526004016105e1906108bb565b60405180910390fd5b80600160003373ffffffffffffffffffffffffffffffffffffffff1673ffffffffffffffffffffffffffffffffffffffff16815260200190815260200160002060008282546106399190610996565b9250508190555080600160008473ffffffffffffffffffffffffffffffffffffffff1673ffffffffffffffffffffffffffffffffffffffff168152602001908152602001600020600082825461068f9190610940565b925050819055507f3990db2d31862302a685e8086b5755072a6e2b5b780af1ee81ece35ee3cd33453383836040516106c993929190610862565b60405180910390a15050565b6000813590506106e481610a35565b92915050565b6000813590506106f981610a4c565b92915050565b60006020828403121561071157600080fd5b600061071f848285016106d5565b91505092915050565b6000806040838503121561073b57600080fd5b6000610749858286016106d5565b925050602061075a858286016106ea565b9150509250929050565b6000610770838361077c565b60208301905092915050565b610785816109ca565b82525050565b610794816109ca565b82525050565b60006107a582610906565b6107af818561091e565b93506107ba836108f6565b8060005b838110156107eb5781516107d28882610764565b97506107dd83610911565b9250506001810190506107be565b5085935050505092915050565b600061080560158361092f565b91507f496e73756666696369656e742062616c616e63652e00000000000000000000006000830152602082019050919050565b610841816109fc565b82525050565b600060208201905061085c600083018461078b565b92915050565b6000606082019050610877600083018661078b565b610884602083018561078b565b6108916040830184610838565b949350505050565b600060208201905081810360008301526108b3818461079a565b905092915050565b600060208201905081810360008301526108d4816107f8565b9050919050565b60006020820190506108f06000830184610838565b92915050565b6000819050602082019050919050565b600081519050919050565b6000602082019050919050565b600082825260208201905092915050565b600082825260208201905092915050565b600061094b826109fc565b9150610956836109fc565b9250827fffffffffffffffffffffffffffffffffffffffffffffffffffffffffffffffff0382111561098b5761098a610a06565b5b828201905092915050565b60006109a1826109fc565b91506109ac836109fc565b9250828210156109bf576109be610a06565b5b828203905092915050565b60006109d5826109dc565b9050919050565b600073ffffffffffffffffffffffffffffffffffffffff82169050919050565b6000819050919050565b7f4e487b7100000000000000000000000000000000000000000000000000000000600052601160045260246000fd5b610a3e816109ca565b8114610a4957600080fd5b50565b610a55816109fc565b8114610a6057600080fd5b5056fea264697066735822122075d7aad30dbda0d6908a37a833c193f761a64b6c47611e4d4339b1b3ecc13e9064736f6c63430008000033",
  "immutableReferences": {},
  "source": "pragma solidity >=0.5.0;\r\n\r\nimport \"./SponsorWhitelistControl.sol\";\r\n\r\ncontract Coin {\r\n    address public minter;\r\n    mapping (address => uint) private balances;\r\n\r\n    SponsorWhitelistControl constant private SPONSOR = SponsorWhitelistControl(address(0x0888000000000000000000000000000000000001));\r\n\r\n    event Sent(address from, address to, uint amount);\r\n\r\n    constructor() public {\r\n        minter = msg.sender;\r\n    }\r\n\r\n    function mint(address receiver, uint amount) public {\r\n        require(msg.sender == minter);\r\n        require(amount < 1e60);\r\n        balances[receiver] += amount;\r\n    }\r\n\r\n    function send(address receiver, uint amount) public {\r\n        require(amount <= balances[msg.sender], \"Insufficient balance.\");\r\n        balances[msg.sender] -= amount;\r\n        balances[receiver] += amount;\r\n        emit Sent(msg.sender, receiver, amount);\r\n    }\r\n    \r\n    function balanceOf(address tokenOwner) public view returns(uint balance){\r\n      return balances[tokenOwner];\r\n    }\r\n\r\n    function addPrivilege(address account) public payable {\r\n        address[] memory a = new address[](1);\r\n        a[0] = account;\r\n        SPONSOR.addPrivilege(a);\r\n    }\r\n\r\n    function removePrivilege(address account) public payable {\r\n        address[] memory a = new address[](1);\r\n        a[0] = account;\r\n        SPONSOR.removePrivilege(a);\r\n    }\r\n}",
  "sourcePath": "/c/Users/bowen/Documents/UofT/4th_year_lec/ECE496/stock_trading/contracts/Coin.sol",
  "compiler": {
    "name": "solc",
    "version": "0.8.0+commit.c7dfd78e.Linux.g++"
  },
  "schemaVersion": "3.2.0",
  "updatedAt": "2021-01-04T22:33:44.147Z",
  "devdoc": {
    "kind": "dev",
    "methods": {},
    "version": 1
  },
  "userdoc": {
    "kind": "user",
    "methods": {},
    "version": 1
  }
}