{
  "contractName": "orderBook",
  "abi": [
    {
      "anonymous": false,
      "inputs": [
        {
          "indexed": false,
          "internalType": "string",
          "name": "stock",
          "type": "string"
        },
        {
          "indexed": false,
          "internalType": "uint256",
          "name": "p_b",
          "type": "uint256"
        },
        {
          "indexed": false,
          "internalType": "uint256",
          "name": "v_b",
          "type": "uint256"
        },
        {
          "indexed": false,
          "internalType": "uint256",
          "name": "p_s",
          "type": "uint256"
        },
        {
          "indexed": false,
          "internalType": "uint256",
          "name": "v_s",
          "type": "uint256"
        }
      ],
      "name": "askOrderRes",
      "type": "event"
    },
    {
      "anonymous": false,
      "inputs": [
        {
          "indexed": false,
          "internalType": "uint256",
          "name": "better",
          "type": "uint256"
        },
        {
          "indexed": false,
          "internalType": "uint256",
          "name": "worse",
          "type": "uint256"
        }
      ],
      "name": "b_w",
      "type": "event"
    },
    {
      "anonymous": false,
      "inputs": [
        {
          "indexed": false,
          "internalType": "string",
          "name": "msg",
          "type": "string"
        }
      ],
      "name": "message",
      "type": "event"
    },
    {
      "anonymous": false,
      "inputs": [
        {
          "indexed": false,
          "internalType": "uint256",
          "name": "orderId",
          "type": "uint256"
        },
        {
          "indexed": false,
          "internalType": "address",
          "name": "creator",
          "type": "address"
        },
        {
          "indexed": false,
          "internalType": "string",
          "name": "stockName",
          "type": "string"
        },
        {
          "indexed": false,
          "internalType": "enum Order.Types",
          "name": "typ",
          "type": "uint8"
        },
        {
          "indexed": false,
          "internalType": "uint256",
          "name": "price",
          "type": "uint256"
        }
      ],
      "name": "removedOrderInfo",
      "type": "event"
    },
    {
      "anonymous": false,
      "inputs": [
        {
          "indexed": false,
          "internalType": "uint256",
          "name": "_orderId",
          "type": "uint256"
        },
        {
          "indexed": false,
          "internalType": "string",
          "name": "stockName",
          "type": "string"
        },
        {
          "indexed": false,
          "internalType": "uint256",
          "name": "price",
          "type": "uint256"
        }
      ],
      "name": "savedOrderInfo",
      "type": "event"
    },
    {
      "constant": false,
      "inputs": [
        {
          "internalType": "string",
          "name": "_stockName",
          "type": "string"
        }
      ],
      "name": "addStocks",
      "outputs": [
        {
          "internalType": "bool",
          "name": "",
          "type": "bool"
        }
      ],
      "payable": false,
      "stateMutability": "nonpayable",
      "type": "function"
    },
    {
      "constant": true,
      "inputs": [
        {
          "internalType": "string",
          "name": "stock",
          "type": "string"
        }
      ],
      "name": "checkBestOrders",
      "outputs": [
        {
          "internalType": "uint256",
          "name": "",
          "type": "uint256"
        },
        {
          "internalType": "uint256",
          "name": "",
          "type": "uint256"
        }
      ],
      "payable": false,
      "stateMutability": "view",
      "type": "function"
    },
    {
      "constant": true,
      "inputs": [],
      "name": "getNumStocks",
      "outputs": [
        {
          "internalType": "uint256",
          "name": "",
          "type": "uint256"
        }
      ],
      "payable": false,
      "stateMutability": "view",
      "type": "function"
    },
    {
      "constant": true,
      "inputs": [
        {
          "internalType": "string",
          "name": "proposed",
          "type": "string"
        }
      ],
      "name": "checkStockInMarket",
      "outputs": [
        {
          "internalType": "bool",
          "name": "",
          "type": "bool"
        },
        {
          "internalType": "uint256",
          "name": "",
          "type": "uint256"
        }
      ],
      "payable": false,
      "stateMutability": "view",
      "type": "function"
    },
    {
      "constant": false,
      "inputs": [
        {
          "internalType": "string",
          "name": "stockName",
          "type": "string"
        }
      ],
      "name": "removeStock",
      "outputs": [
        {
          "internalType": "bool",
          "name": "",
          "type": "bool"
        }
      ],
      "payable": false,
      "stateMutability": "nonpayable",
      "type": "function"
    },
    {
      "constant": true,
      "inputs": [],
      "name": "getStockArray",
      "outputs": [
        {
          "internalType": "string[]",
          "name": "",
          "type": "string[]"
        }
      ],
      "payable": false,
      "stateMutability": "view",
      "type": "function"
    },
    {
      "constant": true,
      "inputs": [
        {
          "internalType": "address",
          "name": "_addr",
          "type": "address"
        }
      ],
      "name": "userOrderNum",
      "outputs": [
        {
          "internalType": "uint256",
          "name": "",
          "type": "uint256"
        },
        {
          "internalType": "uint256",
          "name": "",
          "type": "uint256"
        }
      ],
      "payable": false,
      "stateMutability": "view",
      "type": "function"
    },
    {
      "constant": false,
      "inputs": [
        {
          "internalType": "address",
          "name": "_addr",
          "type": "address"
        },
        {
          "internalType": "enum Order.Types",
          "name": "_typ",
          "type": "uint8"
        },
        {
          "internalType": "uint256",
          "name": "_orderId",
          "type": "uint256"
        }
      ],
      "name": "addOrderToUser",
      "outputs": [
        {
          "internalType": "bool",
          "name": "",
          "type": "bool"
        }
      ],
      "payable": false,
      "stateMutability": "nonpayable",
      "type": "function"
    },
    {
      "constant": true,
      "inputs": [
        {
          "internalType": "address",
          "name": "_addr",
          "type": "address"
        },
        {
          "internalType": "enum Order.Types",
          "name": "_typ",
          "type": "uint8"
        },
        {
          "internalType": "uint256",
          "name": "_orderId",
          "type": "uint256"
        }
      ],
      "name": "findOrderinUser",
      "outputs": [
        {
          "internalType": "bool",
          "name": "",
          "type": "bool"
        },
        {
          "internalType": "uint256",
          "name": "",
          "type": "uint256"
        }
      ],
      "payable": false,
      "stateMutability": "view",
      "type": "function"
    },
    {
      "constant": false,
      "inputs": [
        {
          "internalType": "address",
          "name": "_addr",
          "type": "address"
        },
        {
          "internalType": "enum Order.Types",
          "name": "_typ",
          "type": "uint8"
        },
        {
          "internalType": "uint256",
          "name": "_orderId",
          "type": "uint256"
        }
      ],
      "name": "removeOrderFromUser",
      "outputs": [
        {
          "internalType": "bool",
          "name": "",
          "type": "bool"
        }
      ],
      "payable": false,
      "stateMutability": "nonpayable",
      "type": "function"
    },
    {
      "constant": false,
      "inputs": [
        {
          "internalType": "string",
          "name": "stockName",
          "type": "string"
        },
        {
          "internalType": "enum Order.Types",
          "name": "_typ",
          "type": "uint8"
        },
        {
          "internalType": "uint256",
          "name": "_orderId",
          "type": "uint256"
        }
      ],
      "name": "addOrderToStock",
      "outputs": [
        {
          "internalType": "bool",
          "name": "",
          "type": "bool"
        }
      ],
      "payable": false,
      "stateMutability": "nonpayable",
      "type": "function"
    },
    {
      "constant": true,
      "inputs": [
        {
          "internalType": "string",
          "name": "stockName",
          "type": "string"
        },
        {
          "internalType": "enum Order.Types",
          "name": "_typ",
          "type": "uint8"
        },
        {
          "internalType": "uint256",
          "name": "_orderId",
          "type": "uint256"
        }
      ],
      "name": "checkStockHaveOrder",
      "outputs": [
        {
          "internalType": "bool",
          "name": "",
          "type": "bool"
        },
        {
          "internalType": "uint256",
          "name": "",
          "type": "uint256"
        }
      ],
      "payable": false,
      "stateMutability": "view",
      "type": "function"
    },
    {
      "constant": false,
      "inputs": [
        {
          "internalType": "string",
          "name": "stockName",
          "type": "string"
        },
        {
          "internalType": "enum Order.Types",
          "name": "_typ",
          "type": "uint8"
        },
        {
          "internalType": "uint256",
          "name": "_orderId",
          "type": "uint256"
        }
      ],
      "name": "removeOrderFromStock",
      "outputs": [
        {
          "internalType": "bool",
          "name": "",
          "type": "bool"
        }
      ],
      "payable": false,
      "stateMutability": "nonpayable",
      "type": "function"
    },
    {
      "constant": true,
      "inputs": [
        {
          "internalType": "string",
          "name": "stockName",
          "type": "string"
        }
      ],
      "name": "getStockOrderNum",
      "outputs": [
        {
          "internalType": "uint256",
          "name": "",
          "type": "uint256"
        },
        {
          "internalType": "uint256",
          "name": "",
          "type": "uint256"
        }
      ],
      "payable": false,
      "stateMutability": "view",
      "type": "function"
    },
    {
      "constant": true,
      "inputs": [
        {
          "internalType": "uint256",
          "name": "_orderId",
          "type": "uint256"
        }
      ],
      "name": "getOrderData",
      "outputs": [
        {
          "components": [
            {
              "internalType": "uint256",
              "name": "id",
              "type": "uint256"
            },
            {
              "internalType": "address",
              "name": "creator",
              "type": "address"
            },
            {
              "internalType": "enum Order.Types",
              "name": "typ",
              "type": "uint8"
            },
            {
              "internalType": "string",
              "name": "stock",
              "type": "string"
            },
            {
              "internalType": "uint256",
              "name": "volumn",
              "type": "uint256"
            },
            {
              "internalType": "enum Order.MatchTypes",
              "name": "matchtype",
              "type": "uint8"
            },
            {
              "internalType": "uint256",
              "name": "price",
              "type": "uint256"
            },
            {
              "internalType": "uint256",
              "name": "betterOrder",
              "type": "uint256"
            },
            {
              "internalType": "uint256",
              "name": "worseOrder",
              "type": "uint256"
            }
          ],
          "internalType": "struct Order.Data",
          "name": "",
          "type": "tuple"
        }
      ],
      "payable": false,
      "stateMutability": "view",
      "type": "function"
    },
    {
      "constant": true,
      "inputs": [
        {
          "internalType": "address",
          "name": "creator",
          "type": "address"
        },
        {
          "internalType": "enum Order.Types",
          "name": "typ",
          "type": "uint8"
        },
        {
          "internalType": "string",
          "name": "stock",
          "type": "string"
        },
        {
          "internalType": "uint256",
          "name": "volumn",
          "type": "uint256"
        },
        {
          "internalType": "enum Order.MatchTypes",
          "name": "matchtype",
          "type": "uint8"
        },
        {
          "internalType": "uint256",
          "name": "price",
          "type": "uint256"
        },
        {
          "internalType": "uint256",
          "name": "createtime",
          "type": "uint256"
        }
      ],
      "name": "getOrderId",
      "outputs": [
        {
          "internalType": "bytes32",
          "name": "",
          "type": "bytes32"
        }
      ],
      "payable": false,
      "stateMutability": "view",
      "type": "function"
    },
    {
      "constant": false,
      "inputs": [],
      "name": "assignOrderId",
      "outputs": [
        {
          "internalType": "uint256",
          "name": "",
          "type": "uint256"
        }
      ],
      "payable": false,
      "stateMutability": "nonpayable",
      "type": "function"
    },
    {
      "constant": false,
      "inputs": [
        {
          "internalType": "enum Order.Types",
          "name": "typ",
          "type": "uint8"
        },
        {
          "internalType": "string",
          "name": "stock",
          "type": "string"
        },
        {
          "internalType": "uint256",
          "name": "volumn",
          "type": "uint256"
        },
        {
          "internalType": "enum Order.MatchTypes",
          "name": "matchtype",
          "type": "uint8"
        },
        {
          "internalType": "uint256",
          "name": "price",
          "type": "uint256"
        }
      ],
      "name": "saveOrder",
      "outputs": [
        {
          "internalType": "bool",
          "name": "",
          "type": "bool"
        }
      ],
      "payable": false,
      "stateMutability": "nonpayable",
      "type": "function"
    },
    {
      "constant": false,
      "inputs": [
        {
          "internalType": "uint256",
          "name": "_orderId",
          "type": "uint256"
        },
        {
          "internalType": "uint256",
          "name": "_typ",
          "type": "uint256"
        }
      ],
      "name": "breakLink",
      "outputs": [
        {
          "internalType": "bool",
          "name": "",
          "type": "bool"
        }
      ],
      "payable": false,
      "stateMutability": "nonpayable",
      "type": "function"
    },
    {
      "constant": false,
      "inputs": [
        {
          "internalType": "uint256",
          "name": "_orderId",
          "type": "uint256"
        }
      ],
      "name": "removeOrder",
      "outputs": [
        {
          "internalType": "bool",
          "name": "",
          "type": "bool"
        }
      ],
      "payable": false,
      "stateMutability": "nonpayable",
      "type": "function"
    },
    {
      "constant": true,
      "inputs": [
        {
          "internalType": "uint256",
          "name": "_orderId",
          "type": "uint256"
        }
      ],
      "name": "checkOrderExist",
      "outputs": [
        {
          "internalType": "bool",
          "name": "",
          "type": "bool"
        },
        {
          "internalType": "uint256",
          "name": "",
          "type": "uint256"
        }
      ],
      "payable": false,
      "stateMutability": "view",
      "type": "function"
    },
    {
      "constant": false,
      "inputs": [
        {
          "internalType": "uint256",
          "name": "_orderId",
          "type": "uint256"
        }
      ],
      "name": "removeFromIdArray",
      "outputs": [
        {
          "internalType": "bool",
          "name": "",
          "type": "bool"
        }
      ],
      "payable": false,
      "stateMutability": "nonpayable",
      "type": "function"
    },
    {
      "constant": true,
      "inputs": [],
      "name": "getArraylength",
      "outputs": [
        {
          "internalType": "uint256",
          "name": "",
          "type": "uint256"
        },
        {
          "internalType": "uint256",
          "name": "",
          "type": "uint256"
        }
      ],
      "payable": false,
      "stateMutability": "view",
      "type": "function"
    },
    {
      "constant": true,
      "inputs": [
        {
          "internalType": "string",
          "name": "stockName",
          "type": "string"
        },
        {
          "internalType": "enum Order.Types",
          "name": "typ",
          "type": "uint8"
        },
        {
          "internalType": "uint256",
          "name": "price",
          "type": "uint256"
        }
      ],
      "name": "getBetterOrder",
      "outputs": [
        {
          "internalType": "uint256",
          "name": "",
          "type": "uint256"
        },
        {
          "internalType": "uint256",
          "name": "",
          "type": "uint256"
        }
      ],
      "payable": false,
      "stateMutability": "view",
      "type": "function"
    },
    {
      "constant": false,
      "inputs": [
        {
          "internalType": "string",
          "name": "stock",
          "type": "string"
        }
      ],
      "name": "fillAskOrder",
      "outputs": [
        {
          "internalType": "bool",
          "name": "",
          "type": "bool"
        }
      ],
      "payable": false,
      "stateMutability": "nonpayable",
      "type": "function"
    }
  ],
  "bytecode": "0x60806040526000620186a3556000620186a85534801561001e57600080fd5b50613c458061002e6000396000f3fe608060405234801561001057600080fd5b50600436106101735760003560e01c80637cf2ea1e116100de578063b5468bfe11610097578063e518780b11610071578063e518780b1461054b578063f01b02c41461057b578063f49ac6e11461059a578063fa8c0a4a146105b857610173565b8063b5468bfe146104bb578063dbead7e3146104eb578063e20625c41461051b57610173565b80637cf2ea1e146103aa578063874af56f146103db57806395178c68146103f95780639645337a146104295780639da4810514610459578063a82f9b1c1461048a57610173565b80634b1dd1b2116101305780634b1dd1b2146102875780634d5a9df0146102b857806359d66a48146102e957806363b3eec3146103195780636401f1fc14610349578063724cfb6e1461037957610173565b8063091fef50146101785780631c0c42ba146101965780631ff71994146101c65780632ccf88be146101f657806331c331fe146102265780633517837c14610256575b600080fd5b6101806105e9565b60405161018d919061385e565b60405180910390f35b6101b060048036036101ab91908101906129a9565b6105f5565b6040516101bd9190613523565b60405180910390f35b6101e060048036036101db9190810190612a79565b610aa3565b6040516101ed9190613523565b60405180910390f35b610210600480360361020b9190810190612ae0565b610baf565b60405161021d9190613523565b60405180910390f35b610240600480360361023b9190810190612a38565b610cdd565b60405161024d9190613523565b60405180910390f35b610270600480360361026b9190810190612a38565b610f3c565b60405161027e929190613911565b60405180910390f35b6102a1600480360361029c9190810190612ae0565b610faa565b6040516102af92919061353e565b60405180910390f35b6102d260048036036102cd9190810190612931565b611091565b6040516102e092919061353e565b60405180910390f35b61030360048036036102fe9190810190612a38565b6111df565b6040516103109190613523565b60405180910390f35b610333600480360361032e9190810190612a79565b61128b565b6040516103409190613523565b60405180910390f35b610363600480360361035e9190810190612931565b61141a565b6040516103709190613523565b60405180910390f35b610393600480360361038e9190810190612a79565b611629565b6040516103a192919061353e565b60405180910390f35b6103c460048036036103bf9190810190612a38565b611735565b6040516103d2929190613911565b60405180910390f35b6103e361179d565b6040516103f0919061385e565b60405180910390f35b610413600480360361040e9190810190612ae0565b611824565b604051610420919061383c565b60405180910390f35b610443600480360361043e9190810190612ae0565b6119d6565b6040516104509190613523565b60405180910390f35b610473600480360361046e9190810190612a79565b611c59565b604051610481929190613911565b60405180910390f35b6104a4600480360361049f9190810190612a38565b611e48565b6040516104b292919061353e565b60405180910390f35b6104d560048036036104d09190810190612b09565b611ebb565b6040516104e29190613523565b60405180910390f35b61050560048036036105009190810190612931565b6120f8565b6040516105129190613523565b60405180910390f35b6105356004803603610530919081019061287b565b6121cf565b6040516105429190613567565b60405180910390f35b61056560048036036105609190810190612a38565b612259565b6040516105729190613523565b60405180910390f35b610583612342565b604051610591929190613911565b60405180910390f35b6105a2612372565b6040516105af9190613501565b60405180910390f35b6105d260048036036105cd9190810190612852565b612497565b6040516105e0929190613911565b60405180910390f35b6000620186a354905090565b60008086600281111561060457fe5b90506002811015610a4c5760008061061d888a87611c59565b80925081935050507f7f6f6aa0abf81615cb19c64040e286f5e8dd94a979c409ec6b065811da1f1a808282604051610656929190613911565b60405180910390a1600061066861179d565b90506000600260008381526020019081526020016000209050818160000181905550338160010160006101000a81548173ffffffffffffffffffffffffffffffffffffffff021916908373ffffffffffffffffffffffffffffffffffffffff1602179055508a8160010160146101000a81548160ff021916908360028111156106ed57fe5b02179055508981600201908051906020019061070a929190612547565b50888160030181905550878160040160006101000a81548160ff0219169083600181111561073457fe5b02179055508681600501819055506201869f8414156108d5576201869f620186a68b60405161076391906134ea565b9081526020016040518091039020866002811061077c57fe5b01541415610807577f05c766d1c5ea6f40afc38cd8e27308c236c492fbcfa32b458d2755cf76ec1e216040516107b19061377c565b60405180910390a181620186a68b6040516107cc91906134ea565b908152602001604051809103902086600281106107e557fe5b01819055506201869f81600601819055506201869f81600701819055506108d0565b7f05c766d1c5ea6f40afc38cd8e27308c236c492fbcfa32b458d2755cf76ec1e216040516108349061369c565b60405180910390a16000620186a68b60405161085091906134ea565b9081526020016040518091039020866002811061086957fe5b0154905082620186a68c60405161088091906134ea565b9081526020016040518091039020876002811061089957fe5b01819055506201869f8260060181905550808260070181905550826002600083815260200190815260200160002060060181905550505b6109b3565b8381600601819055508281600701819055506201869f8314610961577f05c766d1c5ea6f40afc38cd8e27308c236c492fbcfa32b458d2755cf76ec1e2160405161091e906136dc565b60405180910390a18160026000868152602001908152602001600020600701819055508160026000858152602001908152602001600020600601819055506109b2565b7f05c766d1c5ea6f40afc38cd8e27308c236c492fbcfa32b458d2755cf76ec1e2160405161098e9061365c565b60405180910390a18160026000868152602001908152602001600020600701819055505b5b600085600281106109c057fe5b018290806001815401808255809150509060018203906000526020600020016000909192909190915055506109f6338c846120f8565b50610a028a8c84610aa3565b507f935262e5ad462991e603f1ab80b1a57e605eed6fc80e50b870b5463b0f8256d4828b89604051610a36939291906138d3565b60405180910390a1600195505050505050610a9a565b610a5586610cdd565b610a94576040517f08c379a0000000000000000000000000000000000000000000000000000000008152600401610a8b9061367c565b60405180910390fd5b60019150505b95945050505050565b600080836002811115610ab257fe5b905060028110610af7576040517f08c379a0000000000000000000000000000000000000000000000000000000008152600401610aee9061371c565b60405180910390fd5b600080610b0387611e48565b809250819350505081610b4b576040517f08c379a0000000000000000000000000000000000000000000000000000000008152600401610b429061375c565b60405180910390fd5b620186a587604051610b5d91906134ea565b90815260200160405180910390208360028110610b7657fe5b01859080600181540180825580915050906001820390600052602060002001600090919290919091505550600193505050509392505050565b6000806000610bbc6125c7565b610bc585611824565b9050600081604001516002811115610bd957fe5b90506002811415610c1f576040517f08c379a0000000000000000000000000000000000000000000000000000000008152600401610c16906136bc565b60405180910390fd5b610c2886610faa565b80945081955050508315610ccf5760008160028110610c4357fe5b01600160008360028110610c5357fe5b01805490500381548110610c6357fe5b906000526020600020015460008260028110610c7b57fe5b018481548110610c8757fe5b906000526020600020018190555060008160028110610ca257fe5b01805480610cac57fe5b600190038181906000526020600020016000905590556001945050505050610cd8565b60009450505050505b919050565b6000806000610ceb84611e48565b809250819350505081610d33576040517f08c379a0000000000000000000000000000000000000000000000000000000008152600401610d2a9061381c565b60405180910390fd5b6000620186a685604051610d4791906134ea565b9081526020016040518091039020600060028110610d6157fe5b015490506000620186a686604051610d7991906134ea565b9081526020016040518091039020600160028110610d9357fe5b01549050610d9f61263f565b6201869f831415610ddf576201869f81600060048110610dbb57fe5b6020020181815250506201869f81600160048110610dd557fe5b6020020181815250505b6201869f821415610e1f576201869f81600260048110610dfb57fe5b6020020181815250506201869f81600360048110610e1557fe5b6020020181815250505b610e2883611824565b6080015181600160048110610e3957fe5b602002018181525050610e4b82611824565b6080015181600360048110610e5c57fe5b602002018181525050610e6e83611824565b60c0015181600060048110610e7f57fe5b602002018181525050610e9182611824565b60c0015181600260048110610ea257fe5b6020020181815250507ff371a5c486a71963150fa96b5ca97763765da0d4dabb1d9d9d334f8a4ecca9c48782600060048110610eda57fe5b602002015183600160048110610eec57fe5b602002015184600260048110610efe57fe5b602002015185600360048110610f1057fe5b6020020151604051610f26959493929190613582565b60405180910390a1600195505050505050919050565b600080620186a583604051610f5191906134ea565b9081526020016040518091039020600060028110610f6b57fe5b0180549050620186a584604051610f8291906134ea565b9081526020016040518091039020600160028110610f9c57fe5b018054905091509150915091565b600080610fb56125c7565b610fbe84611824565b9050600081604001516002811115610fd257fe5b90506002811415611018576040517f08c379a000000000000000000000000000000000000000000000000000000000815260040161100f906136bc565b60405180910390fd5b60008090505b6000826002811061102b57fe5b018054905081101561107e57856000836002811061104557fe5b01828154811061105157fe5b90600052602060002001541415611071576001819450945050505061108c565b808060010191505061101e565b5060006201869f9350935050505b915091565b60008060008460028111156110a257fe5b9050600281106110e7576040517f08c379a00000000000000000000000000000000000000000000000000000000081526004016110de9061371c565b60405180910390fd5b60008090505b620186a460008873ffffffffffffffffffffffffffffffffffffffff1673ffffffffffffffffffffffffffffffffffffffff168152602001908152602001600020826002811061113957fe5b01805490508110156111ca5784620186a460008973ffffffffffffffffffffffffffffffffffffffff1673ffffffffffffffffffffffffffffffffffffffff168152602001908152602001600020836002811061119257fe5b01828154811061119e57fe5b906000526020600020015414156111bd576001819350935050506111d7565b80806001019150506110ed565b5060006201869f92509250505b935093915050565b60008060006111ed84611e48565b8092508193505050811561127f576004620186a3546201869f811061120e57fe5b016004826201869f811061121e57fe5b01908054600181600116156101000203166002900461123e929190612661565b506004620186a3546201869f811061125257fe5b01600061125f91906126e8565b620186a36000815480929190600190039190505550600192505050611286565b6000925050505b919050565b60008083600281111561129a57fe5b9050600281106112df576040517f08c379a00000000000000000000000000000000000000000000000000000000081526004016112d69061371c565b60405180910390fd5b6000806112ed878787611629565b8092508193505050811561140b57620186a58760405161130d91906134ea565b9081526020016040518091039020836002811061132657fe5b016001620186a58960405161133b91906134ea565b9081526020016040518091039020856002811061135457fe5b0180549050038154811061136457fe5b9060005260206000200154620186a58860405161138191906134ea565b9081526020016040518091039020846002811061139a57fe5b0182815481106113a657fe5b9060005260206000200181905550620186a5876040516113c691906134ea565b908152602001604051809103902083600281106113df57fe5b018054806113e957fe5b6001900381819060005260206000200160009055905560019350505050611413565b600093505050505b9392505050565b60008083600281111561142957fe5b90506002811061146e576040517f08c379a00000000000000000000000000000000000000000000000000000000081526004016114659061371c565b60405180910390fd5b60008061147c878787611091565b8092508193505050811561161e57620186a460008873ffffffffffffffffffffffffffffffffffffffff1673ffffffffffffffffffffffffffffffffffffffff16815260200190815260200160002083600281106114d657fe5b016001620186a460008a73ffffffffffffffffffffffffffffffffffffffff1673ffffffffffffffffffffffffffffffffffffffff168152602001908152602001600020856002811061152557fe5b0180549050038154811061153557fe5b9060005260206000200154620186a460008973ffffffffffffffffffffffffffffffffffffffff1673ffffffffffffffffffffffffffffffffffffffff168152602001908152602001600020846002811061158c57fe5b01828154811061159857fe5b9060005260206000200181905550620186a460008873ffffffffffffffffffffffffffffffffffffffff1673ffffffffffffffffffffffffffffffffffffffff16815260200190815260200160002083600281106115f257fe5b018054806115fc57fe5b6001900381819060005260206000200160009055905560019350505050611622565b5050505b9392505050565b600080600084600281111561163a57fe5b90506002811061167f576040517f08c379a00000000000000000000000000000000000000000000000000000000081526004016116769061371c565b60405180910390fd5b60008090505b620186a58760405161169791906134ea565b908152602001604051809103902082600281106116b057fe5b01805490508110156117205784620186a5886040516116cf91906134ea565b908152602001604051809103902083600281106116e857fe5b0182815481106116f457fe5b906000526020600020015414156117135760018193509350505061172d565b8080600101915050611685565b5060006201869f92509250505b935093915050565b600080620186a68360405161174a91906134ea565b908152602001604051809103902060006002811061176457fe5b0154620186a68460405161177891906134ea565b908152602001604051809103902060016002811061179257fe5b015491509150915091565b600080620186a7805490501115611802576000620186a76001620186a78054905003815481106117c957fe5b90600052602060002001549050620186a78054806117e357fe5b6001900381819060005260206000200160009055905580915050611821565b620186a8600081548092919060010191905055506001620186a8540390505b90565b61182c6125c7565b6002600083815260200190815260200160002060405180610120016040529081600082015481526020016001820160009054906101000a900473ffffffffffffffffffffffffffffffffffffffff1673ffffffffffffffffffffffffffffffffffffffff1673ffffffffffffffffffffffffffffffffffffffff1681526020016001820160149054906101000a900460ff1660028111156118c957fe5b60028111156118d457fe5b8152602001600282018054600181600116156101000203166002900480601f0160208091040260200160405190810160405280929190818152602001828054600181600116156101000203166002900480156119715780601f1061194657610100808354040283529160200191611971565b820191906000526020600020905b81548152906001019060200180831161195457829003601f168201915b50505050508152602001600382015481526020016004820160009054906101000a900460ff1660018111156119a257fe5b60018111156119ad57fe5b815260200160058201548152602001600682015481526020016007820154815250509050919050565b60006119e182610baf565b611a20576040517f08c379a0000000000000000000000000000000000000000000000000000000008152600401611a179061379c565b60405180910390fd5b611a286125c7565b611a3183611824565b9050600081604001516002811115611a4557fe5b9050611a5a826060015183604001518661128b565b611a99576040517f08c379a0000000000000000000000000000000000000000000000000000000008152600401611a90906137bc565b60405180910390fd5b611aac826020015183604001518661141a565b611aeb576040517f08c379a0000000000000000000000000000000000000000000000000000000008152600401611ae2906137dc565b60405180910390fd5b611af58482611ebb565b611b34576040517f08c379a0000000000000000000000000000000000000000000000000000000008152600401611b2b906137fc565b60405180910390fd5b600260008581526020019081526020016000206000808201600090556001820160006101000a81549073ffffffffffffffffffffffffffffffffffffffff02191690556001820160146101000a81549060ff0219169055600282016000611b9b91906126e8565b60038201600090556004820160006101000a81549060ff02191690556005820160009055600682016000905560078201600090555050620186a78490806001815401808255809150509060018203906000526020600020016000909192909190915055507ffa7fd33f7a10093ef6dc29873d74e4633c5c48324dc99f8d7dd01f785f71be4e848360200151846060015185604001518660c00151604051611c46959493929190613879565b60405180910390a1600192505050919050565b600080600080611c6887611e48565b809250819350505081611cb0576040517f08c379a0000000000000000000000000000000000000000000000000000000008152600401611ca7906136fc565b60405180910390fd5b6201869f620186a688604051611cc691906134ea565b9081526020016040518091039020876002811115611ce057fe5b60028110611cea57fe5b01541415611d02576201869f80935093505050611e40565b6000866002811115611d1057fe5b90506000620186a689604051611d2691906134ea565b90815260200160405180910390208260028110611d3f57fe5b015490506000819050611d506125c7565b611d5983611824565b90506000841415611dd4575b8060c001518911611da75782915080610100015192506201869f831415611d9757818397509750505050505050611e40565b611da083611824565b9050611d65565b82821415611dc3576201869f8397509750505050505050611e40565b818397509750505050505050611e40565b5b8060c001518910611e175782915080610100015192506201869f831415611e0757818397509750505050505050611e40565b611e1083611824565b9050611dd5565b82821415611e33576201869f8397509750505050505050611e40565b8183975097505050505050505b935093915050565b60008060008090505b620186a354811015611eaa5783805190602001206004826201869f8110611e7457fe5b01604051611e8291906134bc565b60405180910390201415611e9d576001819250925050611eb6565b8080600101915050611e51565b5060006201869f915091505b915091565b6000611ec56125c7565b611ece84611824565b905060008160e0015190506000826101000151905060028510611f26576040517f08c379a0000000000000000000000000000000000000000000000000000000008152600401611f1d9061363c565b60405180910390fd5b7f7f6f6aa0abf81615cb19c64040e286f5e8dd94a979c409ec6b065811da1f1a808282604051611f57929190613911565b60405180910390a16201869f821415612074577f05c766d1c5ea6f40afc38cd8e27308c236c492fbcfa32b458d2755cf76ec1e21604051611f979061361c565b60405180910390a185620186a68460600151604051611fb691906134d3565b90815260200160405180910390208660028110611fcf57fe5b015414612011576040517f08c379a0000000000000000000000000000000000000000000000000000000008152600401612008906135fc565b60405180910390fd5b80620186a6846060015160405161202891906134d3565b9081526020016040518091039020866002811061204157fe5b01819055506201869f811461206f576201869f60026000838152602001908152602001600020600601819055505b6120eb565b7f05c766d1c5ea6f40afc38cd8e27308c236c492fbcfa32b458d2755cf76ec1e216040516120a1906135dc565b60405180910390a18060026000848152602001908152602001600020600701819055506201869f81146120ea578160026000838152602001908152602001600020600601819055505b5b6001935050505092915050565b60008083600281111561210757fe5b90506002811061214c576040517f08c379a00000000000000000000000000000000000000000000000000000000081526004016121439061371c565b60405180910390fd5b620186a460008673ffffffffffffffffffffffffffffffffffffffff1673ffffffffffffffffffffffffffffffffffffffff168152602001908152602001600020816002811061219857fe5b0183908060018154018082558091505090600182039060005260206000200160009091929091909150555060019150509392505050565b60006002888888888888886040516020016121f09796959493929190613428565b60405160208183030381529060405260405161220c91906134a5565b602060405180830381855afa158015612229573d6000803e3d6000fd5b5050506040513d601f19601f8201168201806040525061224c9190810190612980565b9050979650505050505050565b600080600061226784611e48565b809250819350505081156122b0576040517f08c379a00000000000000000000000000000000000000000000000000000000081526004016122a79061373c565b60405180910390fd5b836004620186a3546201869f81106122c457fe5b0190805190602001906122d8929190612547565b50620186a36000815480929190600101919050555060405180604001604052806201869f81526020016201869f815250620186a68560405161231a91906134ea565b9081526020016040518091039020906002612336929190612730565b50600192505050919050565b6000806000806002811061235257fe5b0180549050600060016002811061236557fe5b0180549050915091509091565b606080620186a3546040519080825280602002602001820160405280156123ad57816020015b60608152602001906001900390816123985790505b50905060008090505b620186a35481101561248f576004816201869f81106123d157fe5b018054600181600116156101000203166002900480601f0160208091040260200160405190810160405280929190818152602001828054600181600116156101000203166002900480156124665780601f1061243b57610100808354040283529160200191612466565b820191906000526020600020905b81548152906001019060200180831161244957829003601f168201915b505050505082828151811061247757fe5b602002602001018190525080806001019150506123b6565b508091505090565b600080620186a460008473ffffffffffffffffffffffffffffffffffffffff1673ffffffffffffffffffffffffffffffffffffffff1681526020019081526020016000206000600281106124e757fe5b0180549050620186a460008573ffffffffffffffffffffffffffffffffffffffff1673ffffffffffffffffffffffffffffffffffffffff16815260200190815260200160002060016002811061253957fe5b018054905091509150915091565b828054600181600116156101000203166002900490600052602060002090601f016020900481019282601f1061258857805160ff19168380011785556125b6565b828001600101855582156125b6579182015b828111156125b557825182559160200191906001019061259a565b5b5090506125c39190612770565b5090565b60405180610120016040528060008152602001600073ffffffffffffffffffffffffffffffffffffffff1681526020016000600281111561260457fe5b815260200160608152602001600081526020016000600181111561262457fe5b81526020016000815260200160008152602001600081525090565b6040518060800160405280600490602082028038833980820191505090505090565b828054600181600116156101000203166002900490600052602060002090601f016020900481019282601f1061269a57805485556126d7565b828001600101855582156126d757600052602060002091601f016020900482015b828111156126d65782548255916001019190600101906126bb565b5b5090506126e49190612770565b5090565b50805460018160011615610100020316600290046000825580601f1061270e575061272d565b601f01602090049060005260206000209081019061272c9190612770565b5b50565b826002810192821561275f579160200282015b8281111561275e578251825591602001919060010190612743565b5b50905061276c9190612770565b5090565b61279291905b8082111561278e576000816000905550600101612776565b5090565b90565b6000813590506127a481613b9d565b92915050565b6000815190506127b981613bb4565b92915050565b6000813590506127ce81613bcb565b92915050565b6000813590506127e381613bdb565b92915050565b600082601f8301126127fa57600080fd5b813561280d61280882613967565b61393a565b9150808252602083016020830185838301111561282957600080fd5b612834838284613ad6565b50505092915050565b60008135905061284c81613beb565b92915050565b60006020828403121561286457600080fd5b600061287284828501612795565b91505092915050565b600080600080600080600060e0888a03121561289657600080fd5b60006128a48a828b01612795565b97505060206128b58a828b016127d4565b965050604088013567ffffffffffffffff8111156128d257600080fd5b6128de8a828b016127e9565b95505060606128ef8a828b0161283d565b94505060806129008a828b016127bf565b93505060a06129118a828b0161283d565b92505060c06129228a828b0161283d565b91505092959891949750929550565b60008060006060848603121561294657600080fd5b600061295486828701612795565b9350506020612965868287016127d4565b92505060406129768682870161283d565b9150509250925092565b60006020828403121561299257600080fd5b60006129a0848285016127aa565b91505092915050565b600080600080600060a086880312156129c157600080fd5b60006129cf888289016127d4565b955050602086013567ffffffffffffffff8111156129ec57600080fd5b6129f8888289016127e9565b9450506040612a098882890161283d565b9350506060612a1a888289016127bf565b9250506080612a2b8882890161283d565b9150509295509295909350565b600060208284031215612a4a57600080fd5b600082013567ffffffffffffffff811115612a6457600080fd5b612a70848285016127e9565b91505092915050565b600080600060608486031215612a8e57600080fd5b600084013567ffffffffffffffff811115612aa857600080fd5b612ab4868287016127e9565b9350506020612ac5868287016127d4565b9250506040612ad68682870161283d565b9150509250925092565b600060208284031215612af257600080fd5b6000612b008482850161283d565b91505092915050565b60008060408385031215612b1c57600080fd5b6000612b2a8582860161283d565b9250506020612b3b8582860161283d565b9150509250929050565b6000612b518383612da5565b905092915050565b612b6281613a3a565b82525050565b612b7181613a3a565b82525050565b612b88612b8382613a3a565b613b18565b82525050565b6000612b99826139b8565b612ba381856139f1565b935083602082028501612bb585613993565b8060005b85811015612bf15784840389528151612bd28582612b45565b9450612bdd836139e4565b925060208a01995050600181019050612bb9565b50829750879550505050505092915050565b612c0c81613a4c565b82525050565b612c1b81613a58565b82525050565b6000612c2c826139c3565b612c368185613a02565b9350612c46818560208601613ae5565b80840191505092915050565b600081546001811660008114612c6f5760018114612c9457612cd8565b607f6002830416612c808187613a02565b955060ff1983168652808601935050612cd8565b60028204612ca28187613a02565b9550612cad856139a3565b60005b82811015612ccf57815481890152600182019150602081019050612cb0565b82880195505050505b505092915050565b612ce981613ab2565b82525050565b612d00612cfb82613ab2565b613b46565b82525050565b612d0f81613ac4565b82525050565b612d1e81613ac4565b82525050565b612d35612d3082613ac4565b613b46565b82525050565b6000612d46826139d9565b612d508185613a1e565b9350612d60818560208601613ae5565b612d6981613b58565b840191505092915050565b6000612d7f826139d9565b612d898185613a2f565b9350612d99818560208601613ae5565b80840191505092915050565b6000612db0826139ce565b612dba8185613a0d565b9350612dca818560208601613ae5565b612dd381613b58565b840191505092915050565b6000612de9826139ce565b612df38185613a1e565b9350612e03818560208601613ae5565b612e0c81613b58565b840191505092915050565b6000612e22826139ce565b612e2c8185613a2f565b9350612e3c818560208601613ae5565b80840191505092915050565b6000612e55600d83613a1e565b91507f64656c657465206d6964646c65000000000000000000000000000000000000006000830152602082019050919050565b6000612e95602c83613a1e565b91507f4f7264657220686173206e6f2062657474657220627574206973206e6f74206260008301527f65737420696e20626f6f6b2100000000000000000000000000000000000000006020830152604082019050919050565b6000612efb600b83613a1e565b91507f64656c65746520626573740000000000000000000000000000000000000000006000830152602082019050919050565b6000612f3b601183613a1e565b91507f5f747970206f7574206f6620626f756e640000000000000000000000000000006000830152602082019050919050565b6000612f7b600b83613a1e565b91507f696e73657274207461696c0000000000000000000000000000000000000000006000830152602082019050919050565b6000612fbb600f83613a1e565b91507f66696c6c2061736b206661696c656400000000000000000000000000000000006000830152602082019050919050565b6000612ffb600b83613a1e565b91507f696e7365727420686561640000000000000000000000000000000000000000006000830152602082019050919050565b600061303b601783613a1e565b91507f61736b206f72646572206973206e6f742073746f7265640000000000000000006000830152602082019050919050565b600061307b600d83613a1e565b91507f696e73657274206d6964646c65000000000000000000000000000000000000006000830152602082019050919050565b60006130bb600f83613a1e565b91507f73746f636b206e6f7420657869737400000000000000000000000000000000006000830152602082019050919050565b60006130fb600d83613a1e565b91507f41736b206e6f742073746f7265000000000000000000000000000000000000006000830152602082019050919050565b600061313b601783613a1e565b91507f73746f636b20616c726561647920696e206d61726b65740000000000000000006000830152602082019050919050565b600061317b601383613a1e565b91507f53746f636b206e6f7420696e206d61726b6574000000000000000000000000006000830152602082019050919050565b60006131bb600e83613a1e565b91507f696e697469616c206272756e63680000000000000000000000000000000000006000830152602082019050919050565b60006131fb600f83613a1e565b91507f4f72646572206e6f7420657869737400000000000000000000000000000000006000830152602082019050919050565b600061323b601d83613a1e565b91507f4f72646572206e6f74207265676973746572656420746f2073746f636b0000006000830152602082019050919050565b600061327b601c83613a1e565b91507f4f72646572206e6f74207265676973746572656420746f2055736572000000006000830152602082019050919050565b60006132bb600f83613a1e565b91507f4c696e6b20627265616b206661696c00000000000000000000000000000000006000830152602082019050919050565b60006132fb601383613a1e565b91507f73746f636b206e6f7420696e206d61726b6574000000000000000000000000006000830152602082019050919050565b60006101208301600083015161334760008601826133f3565b50602083015161335a6020860182612b59565b50604083015161336d6040860182612d06565b50606083015184820360608601526133858282612da5565b915050608083015161339a60808601826133f3565b5060a08301516133ad60a0860182612ce0565b5060c08301516133c060c08601826133f3565b5060e08301516133d360e08601826133f3565b506101008301516133e86101008601826133f3565b508091505092915050565b6133fc81613aa8565b82525050565b61340b81613aa8565b82525050565b61342261341d82613aa8565b613b3c565b82525050565b6000613434828a612b77565b6014820191506134448289612d24565b6001820191506134548288612d74565b91506134608287613411565b6020820191506134708286612cef565b6001820191506134808285613411565b6020820191506134908284613411565b60208201915081905098975050505050505050565b60006134b18284612c21565b915081905092915050565b60006134c88284612c52565b915081905092915050565b60006134df8284612e17565b915081905092915050565b60006134f68284612d74565b915081905092915050565b6000602082019050818103600083015261351b8184612b8e565b905092915050565b60006020820190506135386000830184612c03565b92915050565b60006040820190506135536000830185612c03565b6135606020830184613402565b9392505050565b600060208201905061357c6000830184612c12565b92915050565b600060a082019050818103600083015261359c8188612d3b565b90506135ab6020830187613402565b6135b86040830186613402565b6135c56060830185613402565b6135d26080830184613402565b9695505050505050565b600060208201905081810360008301526135f581612e48565b9050919050565b6000602082019050818103600083015261361581612e88565b9050919050565b6000602082019050818103600083015261363581612eee565b9050919050565b6000602082019050818103600083015261365581612f2e565b9050919050565b6000602082019050818103600083015261367581612f6e565b9050919050565b6000602082019050818103600083015261369581612fae565b9050919050565b600060208201905081810360008301526136b581612fee565b9050919050565b600060208201905081810360008301526136d58161302e565b9050919050565b600060208201905081810360008301526136f58161306e565b9050919050565b60006020820190508181036000830152613715816130ae565b9050919050565b60006020820190508181036000830152613735816130ee565b9050919050565b600060208201905081810360008301526137558161312e565b9050919050565b600060208201905081810360008301526137758161316e565b9050919050565b60006020820190508181036000830152613795816131ae565b9050919050565b600060208201905081810360008301526137b5816131ee565b9050919050565b600060208201905081810360008301526137d58161322e565b9050919050565b600060208201905081810360008301526137f58161326e565b9050919050565b60006020820190508181036000830152613815816132ae565b9050919050565b60006020820190508181036000830152613835816132ee565b9050919050565b60006020820190508181036000830152613856818461332e565b905092915050565b60006020820190506138736000830184613402565b92915050565b600060a08201905061388e6000830188613402565b61389b6020830187612b68565b81810360408301526138ad8186612dde565b90506138bc6060830185612d15565b6138c96080830184613402565b9695505050505050565b60006060820190506138e86000830186613402565b81810360208301526138fa8185612d3b565b90506139096040830184613402565b949350505050565b60006040820190506139266000830185613402565b6139336020830184613402565b9392505050565b6000604051905081810181811067ffffffffffffffff8211171561395d57600080fd5b8060405250919050565b600067ffffffffffffffff82111561397e57600080fd5b601f19601f8301169050602081019050919050565b6000819050602082019050919050565b60008190508160005260206000209050919050565b600081519050919050565b600081519050919050565b600081519050919050565b600081519050919050565b6000602082019050919050565b600082825260208201905092915050565b600081905092915050565b600082825260208201905092915050565b600082825260208201905092915050565b600081905092915050565b6000613a4582613a88565b9050919050565b60008115159050919050565b6000819050919050565b6000819050613a7082613b83565b919050565b6000819050613a8382613b90565b919050565b600073ffffffffffffffffffffffffffffffffffffffff82169050919050565b6000819050919050565b6000613abd82613a62565b9050919050565b6000613acf82613a75565b9050919050565b82818337600083830152505050565b60005b83811015613b03578082015181840152602081019050613ae8565b83811115613b12576000848401525b50505050565b6000613b2382613b2a565b9050919050565b6000613b3582613b76565b9050919050565b6000819050919050565b6000613b5182613b69565b9050919050565b6000601f19601f8301169050919050565b60008160f81b9050919050565b60008160601b9050919050565b60028110613b8d57fe5b50565b60038110613b9a57fe5b50565b613ba681613a3a565b8114613bb157600080fd5b50565b613bbd81613a58565b8114613bc857600080fd5b50565b60028110613bd857600080fd5b50565b60038110613be857600080fd5b50565b613bf481613aa8565b8114613bff57600080fd5b5056fea365627a7a723158201b759eb955324a87a231291526443c663b17c1a8b66a379140db24a4753d3ad56c6578706572696d656e74616cf564736f6c63430005100040",
  "source": "pragma solidity >=0.5.0;\npragma experimental ABIEncoderV2;\n\nimport \"./order.sol\";\n\ncontract orderBook {\n    uint256 constant MAX_STOCK = 99999; //max number of stock that can be stored in this orderbook \n    uint256 constant MAX_ORDER = 99999; //max number of unfilled order ...\n    \n    uint256[][2] id_array;                      //store all the unfilled orderIds \n                                                //split to index 0:buy 1:sell\n\n    mapping(uint256 => Order.Data) private orders; // array of orders storing data\n\n    mapping(string => uint256) completeData;        //for future use record order have been filled\n\n    string[MAX_STOCK] stockTable;                   //store all the stocks\n    uint256 num_stock = 0;                          // stock index tracker \n    mapping(address => uint256[][2]) creatorTable;  //mapping user to orderIDs // for accessing data frontend\n    mapping(string => uint256[][2]) stockOrder;     //mapping stock to orderIDs // for accessing data frontend\n    mapping(string => uint256[2]) bestOrders;       //tracking the best buy/sell order for each stock\n\n    uint256[] Idvacancy;                            // tracker for assigning orderIds          \n    uint256 nextAvl = 0; \n\n    mapping(address=>mapping(string=>uint256)) propertyTable;\n    /*This section for issue and remove stocks*/\n    /***\n    TO DO: only verified company can issue stocks (whitelist)\n    ***/\n    function addStocks(string memory _stockName) public returns(bool){\n        bool _exist; \n        uint256 _t;\n        (_exist, _t) =  checkStockInMarket(_stockName);            \n        require(!_exist, \"stock already in market\");          //check if name repeat\n        stockTable[num_stock] = _stockName;\n        num_stock++;\n        bestOrders[_stockName] = [MAX_ORDER,MAX_ORDER];\n        return true;\n    } \n    //check the best buy/sell order for stock \n    function checkBestOrders(string memory stock) public view returns(uint256, uint256){   \n        return (bestOrders[stock][0],bestOrders[stock][1]);\n    }\n    //for debugging can remove\n    function getNumStocks() public view returns(uint256){\n        return num_stock;\n    }\n    //check if stock exist, can be internal \n    function checkStockInMarket(string memory proposed) public view returns(bool, uint){\n        for(uint i=0; i<num_stock; i++){\n            if (keccak256(bytes(stockTable[i])) == keccak256(bytes(proposed))){\n                return (true, i); \n            }\n        }\n        return (false,MAX_STOCK);\n    }\n    \n    function removeStock(string memory stockName) public returns(bool){\n        bool _exist;\n        uint index;\n        (_exist, index) = checkStockInMarket(stockName);\n        if(_exist){\n            stockTable[index] = stockTable[num_stock];\n            delete stockTable[num_stock];\n            num_stock--;\n            return true;\n        }\n        return false;\n    }\n    //print the stock array\n    function getStockArray() public view returns(string[] memory){\n        string[] memory a = new string[](num_stock);\n        for(uint256 i=0; i<num_stock; i++){\n            a[i] = stockTable[i];\n        }\n        return a;\n    }\n\n    /*This section store orderId to user*/\n\n    function userOrderNum(address _addr) public view returns(uint256, uint256){\n        return (creatorTable[_addr][0].length,creatorTable[_addr][1].length) ;\n    }\n\n    function addOrderToUser(address _addr, Order.Types _typ, uint256 _orderId) public returns(bool){\n        uint256 _typ_int = uint256(_typ);\n        require(_typ_int <2, \"Ask not store\");\n        creatorTable[_addr][_typ_int].push(_orderId);\n        return true;\n    }\n    function findOrderinUser(address _addr, Order.Types _typ, uint256 _orderId) public view returns(bool, uint){\n        uint256 _typ_int = uint256(_typ);\n        require(_typ_int <2, \"Ask not store\");\n        for(uint i = 0; i< creatorTable[_addr][_typ_int].length; i++){\n            if(creatorTable[_addr][_typ_int][i] == _orderId){\n                return (true, i);\n            }\n        }\n        return (false, MAX_ORDER);\n    }\n\n    function removeOrderFromUser(address _addr,Order.Types _typ,  uint256 _orderId) public returns(bool){\n        uint256 _typ_int = uint256(_typ);\n        require(_typ_int <2, \"Ask not store\");\n        bool _exist;\n        uint index;\n        (_exist, index) = findOrderinUser(_addr, _typ, _orderId);\n        if(_exist){\n            creatorTable[_addr][_typ_int][index] = creatorTable[_addr][_typ_int][creatorTable[_addr][_typ_int].length-1];\n            creatorTable[_addr][_typ_int].pop();\n            //creatorTable[_addr].length--;\n        return true;\n        }\n    }\n\n    /*This section assign orderID to Stock*/\n\n    function addOrderToStock(string memory stockName,Order.Types _typ, uint256 _orderId) public returns(bool){\n        uint256 _typ_int = uint256(_typ);\n        require(_typ_int<2, \"Ask not store\");\n        bool _exist;\n        uint256 _t;\n        (_exist, _t) = checkStockInMarket(stockName);\n        require(_exist, \"Stock not in market\");\n        stockOrder[stockName][_typ_int].push(_orderId);\n        return true;\n    }\n\n    function checkStockHaveOrder(string memory stockName,Order.Types _typ, uint256 _orderId) public view returns(bool, uint256){\n        uint256 _typ_int = uint256(_typ);\n        require(_typ_int<2, \"Ask not store\");\n        for(uint256 i =0; i<stockOrder[stockName][_typ_int].length;i++){\n            if (stockOrder[stockName][_typ_int][i] == _orderId){\n                return (true, i);\n            }    \n        }\n        return (false,MAX_ORDER);\n    }\n\n    function removeOrderFromStock(string memory stockName,Order.Types _typ, uint256 _orderId) public returns(bool){\n        uint256 _typ_int = uint256(_typ);\n        require(_typ_int<2, \"Ask not store\");\n        bool _exist;\n        uint256 index;\n        (_exist, index) = checkStockHaveOrder(stockName, _typ,_orderId);\n        if(_exist){\n            stockOrder[stockName][_typ_int][index] = stockOrder[stockName][_typ_int][stockOrder[stockName][_typ_int].length-1];\n            stockOrder[stockName][_typ_int].pop();\n            return true;\n        }\n        return false;\n    }\n    function getStockOrderNum(string memory stockName) public view returns(uint256, uint256){\n        return (stockOrder[stockName][0].length,stockOrder[stockName][1].length);\n    }\n\n    \n    /*some look up functions*/ \n    function getOrderData(uint256 _orderId) public view returns( Order.Data memory){\n        return orders[_orderId];\n    }\n    function getOrderCreator(uint256 _orderId) internal view returns(address){\n        return getOrderData(_orderId).creator;\n    }\n    function getOrderPrice(uint256 _orderId) internal view returns(uint256){\n        return getOrderData(_orderId).price;\n    }\n    function getOrderVolume(uint256 _orderId) internal view returns(uint256){\n        return getOrderData(_orderId).volumn;\n    }\n    function getOrderMatchType(uint256 _orderId) internal view returns(uint256){\n        return uint256(getOrderData(_orderId).matchtype);\n    }\n    //abandoned orderId method should remove\n    function getOrderId( address creator,Order.Types typ, string memory stock, uint256 volumn,Order.MatchTypes  matchtype, uint256 price, uint createtime) public view returns(bytes32){\n        return sha256(abi.encodePacked(creator, typ, stock, volumn, matchtype, price,createtime));\n    }\n\n    //for assigning unique orderId to each new buy/sell order\n    function assignOrderId() public returns (uint256){\n        if(Idvacancy.length>0){\n            uint256 id = Idvacancy[Idvacancy.length-1];\n            Idvacancy.pop();\n            return id;\n        }\n        else{\n            nextAvl++;\n            return nextAvl-1;\n        }\n    }\n\n    //some events print out for logging \n    event savedOrderInfo(uint256 _orderId, string stockName, uint256 price);\n    event message(string msg);\n    event b_w(uint256 better, uint256 worse);\n\n    //orders form a linked list by _order.better _order.worse\n    //create order globally\n    function saveOrder(Order.Types  typ, string memory stock, uint256 volumn,Order.MatchTypes  matchtype, uint256 price) public returns(bool){\n        //uint256 _orderId  = getOrderId(creator, typ, stock, volumn, matchtype, price, now);\n        uint256 _typ = uint256(typ);\n        if (_typ<2){      //save if buy/sell, fill if ask   \n            //check condition commented out for debugging convinience\n            //if(_typ==0){require(msg.sender.balance>fund, \"buyer don't have enough fund\"); }\n            //if(_typ==1){require(propertyTable[msg.sender][stock]>=volumn, \"seller don't have enough stock to sell\");} \n            uint256 better;\n            uint256 worse;\n            (better, worse) = getBetterOrder( stock, typ, price);\n            emit b_w(better, worse);\n            uint256 _orderId = assignOrderId();\n            Order.Data storage _order = orders[_orderId];\n            _order.id = _orderId;\n            _order.creator = msg.sender;\n            _order.typ = typ;\n            _order.stock = stock;\n            _order.volumn = volumn;\n            _order.matchtype = matchtype;\n            _order.price = price;\n            \n            //link list manipulation\n            if(better==MAX_ORDER ){\n                if(bestOrders[stock][_typ] == MAX_ORDER){\n                    emit message(\"initial brunch\");\n                    bestOrders[stock][_typ] = _orderId;\n                    _order.betterOrder=MAX_ORDER;\n                    _order.worseOrder=MAX_ORDER;\n                }\n                else{\n                    emit message(\"insert head\");\n                    uint256 cur_best = bestOrders[stock][_typ];\n                    bestOrders[stock][_typ] = _orderId;\n                    _order.betterOrder=MAX_ORDER;\n                    _order.worseOrder=cur_best;\n                    orders[cur_best].betterOrder=_orderId;\n                }\n            }\n            else{\n                _order.betterOrder = better;\n                _order.worseOrder = worse;\n                if(worse!=MAX_ORDER){\n                    emit message(\"insert middle\");\n                    orders[better].worseOrder = _orderId;\n                    orders[worse].betterOrder = _orderId;\n                }\n                else{\n                    emit message(\"insert tail\");\n                    orders[better].worseOrder = _orderId;\n                }\n            }\n\n            id_array[_typ].push(_orderId);\n            addOrderToUser(msg.sender, typ, _orderId);\n            addOrderToStock(stock, typ,  _orderId);\n            emit savedOrderInfo( _orderId, stock, price);\n            return true;\n        }\n        else{\n            require(fillAskOrder(stock), \"fill ask failed\");\n            return true;\n        }\n    }\n\n    //helper for remove order from link list\n    function breakLink(uint256 _orderId,  uint256 _typ) public returns(bool){\n        Order.Data memory _data= getOrderData(_orderId);\n        uint256 better = _data.betterOrder;\n        uint256 worse = _data.worseOrder;\n        require(_typ < 2, \"_typ out of bound\");\n        emit b_w(better, worse);\n        if(better == MAX_ORDER){\n            emit message(\"delete best\");\n            require(bestOrders[_data.stock][_typ] == _orderId, \"Order has no better but is not best in book!\");\n            bestOrders[_data.stock][_typ] = worse;\n            if(worse != MAX_ORDER){\n                orders[worse].betterOrder = MAX_ORDER;\n            }\n        }\n        else{\n            emit message(\"delete middle\");\n            orders[better].worseOrder = worse;\n            if(worse != MAX_ORDER){\n                orders[worse].betterOrder =better;\n            }\n        }\n        return true;\n    }\n\n    event removedOrderInfo(uint256 orderId, address creator, string stockName, Order.Types typ, uint256 price);\n    \n    //remove order globally\n    function removeOrder(uint256 _orderId) public returns(bool){\n        require(removeFromIdArray(_orderId), \"Order not exist\");\n        Order.Data memory _data= getOrderData(_orderId);\n        uint256 _typ = uint256(_data.typ);\n        require(removeOrderFromStock(_data.stock,_data.typ, _orderId), \"Order not registered to stock\");\n        require(removeOrderFromUser(_data.creator,_data.typ, _orderId), \"Order not registered to User\");\n        require(breakLink(_orderId, _typ),\"Link break fail\");\n        delete orders[_orderId];\n        Idvacancy.push(_orderId);\n        emit removedOrderInfo(_orderId, _data.creator, _data.stock, _data.typ, _data.price );\n        return true;\n    }\n\n    function checkOrderExist(uint256 _orderId) public view returns(bool, uint256){\n        Order.Data memory _data = getOrderData(_orderId);\n        uint256 _typ = uint256(_data.typ);\n        require(_typ != 2, \"ask order is not stored\");\n        for(uint256 i=0; i<id_array[_typ].length;i++){\n            if (id_array[_typ][i]==_orderId){\n                return (true, i );\n            }\n        }\n        return (false, MAX_ORDER);\n    }\n    //remove helper\n    function removeFromIdArray(uint256 _orderId) public returns(bool){\n        bool _exist;\n        uint256 index;\n        Order.Data memory _data = getOrderData(_orderId);\n        uint256 _typ = uint256(_data.typ);\n        require(_typ != 2, \"ask order is not stored\");\n        (_exist, index) = checkOrderExist(_orderId);\n        if(_exist){\n            id_array[_typ][index] = id_array[_typ][id_array[_typ].length-1];\n            id_array[_typ].pop();\n            return true;\n        }\n        return false;\n    }\n    function getArraylength() public view returns(uint, uint){\n        return (id_array[0].length, id_array[1].length);\n    }\n\n    //find the position in linklist of the order\n    function getBetterOrder(string memory stockName, Order.Types typ,  uint256 price) public view returns(uint256, uint256){\n\n        bool exist;\n        uint256 _t; \n        (exist,_t) = checkStockInMarket(stockName);\n        require(exist, \"stock not exist\");\n        //first order\n        if(bestOrders[stockName][uint256(typ)]==MAX_ORDER){\n            return (MAX_ORDER,MAX_ORDER);\n        }\n\n        uint256 _type = uint256(typ);\n                                       //greater is better for buy; less is better for sell\n        \n        uint256 cur_id = bestOrders[stockName][_type];\n        uint256 prev_id = cur_id;\n        Order.Data memory _data = getOrderData(cur_id);\n        if(_type ==0){\n            while(price<=_data.price){\n                prev_id = cur_id;\n                cur_id = _data.worseOrder;\n                if( cur_id==MAX_ORDER){\n                    return (prev_id, cur_id);\n                }\n                _data = getOrderData(cur_id);\n            }\n            if(prev_id == cur_id){\n                return (MAX_ORDER, cur_id);\n            }\n            return (prev_id, cur_id);\n        }\n        else{\n            while(price>=_data.price){\n                    prev_id = cur_id;\n                    cur_id = _data.worseOrder;\n                    if( cur_id==MAX_ORDER){\n                        return (prev_id, cur_id);\n                    }\n                    _data = getOrderData(cur_id);\n                }\n                if(prev_id == cur_id){\n                    return (MAX_ORDER, cur_id);\n                }\n                return (prev_id, cur_id);\n        }\n    }\n    /*\n    event fillOrderInfo(uint256 ordreId, bool complete);\n    //not finished \n    \n    function transfer(address payable seller, address buyer, string memory stock, uint256 price, uint256 volumn) public payable returns(bool){\n        uint256 fund = price*volumn;\n        require(propertyTable[seller][stock]>volumn, \"seller don't have enough stock to sell\"); //should check earlier\n        require(buyer.balance>fund, \"buyer don't have enough fund\");\n        seller.transfer(fund); // critical how to make buyer send the money?????????\n        propertyTable[seller][stock]+=volumn;\n        return true;\n    }\n\n    //not finished\n\n    function fillOrder() public returns(bool){\n        for(uint256 i =0; i< num_stock; i++){\n            string memory stockName = stockTable[i];\n            uint256 bestbuy = bestOrders[stockName][0];\n            uint256 bestsell = bestOrders[stockName][1];\n            while(getOrderPrice(bestbuy)>=getOrderPrice(bestsell)){\n                if(getOrderVolume(bestbuy)<getOrderVolume(bestsell)){\n                    uint256 remaindar = getOrderVolume(bestsell) - getOrderVolume(bestbuy);\n                    orders[bestsell].volumn = remaindar;\n                    removeOrder(bestbuy);\n                    emit fillOrderInfo(bestbuy, true);\n                    emit fillOrderInfo(bestsell, false);\n                }\n                else{\n                    if(getOrderVolume(bestbuy)==getOrderVolume(bestsell)){\n                    removeOrder(bestbuy);\n                    removeOrder(bestsell);\n                    emit fillOrderInfo(bestbuy, true);\n                    emit fillOrderInfo(bestsell, true);\n                    }\n                    else{\n                        uint256 remaindar = getOrderVolume(bestbuy) - getOrderVolume(bestsell);\n                        orders[bestbuy].volumn = remaindar;\n                        removeOrder(bestbuy);\n                        emit fillOrderInfo(bestbuy, false);\n                        emit fillOrderInfo(bestsell, true);\n                        \n                    }\n                    \n                }\n            bestbuy = bestOrders[stockName][0];\n            bestsell = bestOrders[stockName][1];\n            }\n        \n        }\n\n    }\n    */\n    //fill ask Order\n    event askOrderRes(string stock , uint256 p_b,uint256 v_b,uint256 p_s,uint256 v_s  );\n    function fillAskOrder(string memory stock) public returns(bool){//, uint256 volumn\n        bool _e;\n        uint256 _t;\n        (_e, _t) = checkStockInMarket(stock);\n        require(_e,\"stock not in market\");\n        uint256 bestbuy = bestOrders[stock][0];\n        uint256 bestsell = bestOrders[stock][1];\n        uint256[4] memory data;\n        if(bestbuy == MAX_ORDER){\n            data[0] = MAX_ORDER;\n            data[1] = MAX_ORDER;\n        }\n        if(bestsell == MAX_ORDER){\n            data[2] = MAX_ORDER;\n            data[3] = MAX_ORDER;\n        }\n        data[1] = getOrderData(bestbuy).volumn;\n        data[3] = getOrderData(bestsell).volumn;\n        data[0] = getOrderData(bestbuy).price;\n        data[2] = getOrderData(bestsell).price;\n        emit askOrderRes(stock,data[0],data[1],data[2],data[3] );\n        return true;\n    }\n\n    //function completeOrder();\n    \n\n}",
  "sourcePath": "/Users/adong/Smartbull/stock_trading/contracts/orderBook.sol",
  "compiler": {
    "name": "solc",
    "version": "0.5.16+commit.9c3226ce.Emscripten.clang"
  },
  "schemaVersion": "3.2.0",
  "updatedAt": "2021-01-05T04:35:16.680Z",
  "devdoc": {
    "methods": {}
  },
  "userdoc": {
    "methods": {
      "addStocks(string)": {
        "notice": "* TO DO: only verified company can issue stocks (whitelist)**"
      }
    }
  }
}